{
  "contractName": "OTRCPartyToken",
  "abi": [
    {
      "inputs": [],
      "stateMutability": "nonpayable",
      "type": "constructor"
    },
    {
      "anonymous": false,
      "inputs": [
        {
          "indexed": true,
          "internalType": "address",
          "name": "owner",
          "type": "address"
        },
        {
          "indexed": true,
          "internalType": "address",
          "name": "spender",
          "type": "address"
        },
        {
          "indexed": false,
          "internalType": "uint256",
          "name": "value",
          "type": "uint256"
        }
      ],
      "name": "Approval",
      "type": "event"
    },
    {
      "anonymous": false,
      "inputs": [
        {
          "indexed": true,
          "internalType": "address",
          "name": "from",
          "type": "address"
        },
        {
          "indexed": true,
          "internalType": "address",
          "name": "to",
          "type": "address"
        },
        {
          "indexed": false,
          "internalType": "uint256",
          "name": "value",
          "type": "uint256"
        }
      ],
      "name": "Transfer",
      "type": "event"
    },
    {
      "inputs": [
        {
          "internalType": "address",
          "name": "",
          "type": "address"
        }
      ],
      "name": "balanceOf",
      "outputs": [
        {
          "internalType": "uint256",
          "name": "balance",
          "type": "uint256"
        },
        {
          "internalType": "uint256",
          "name": "lastDividendPoints",
          "type": "uint256"
        }
      ],
      "stateMutability": "view",
      "type": "function"
    },
    {
      "inputs": [],
      "name": "decimals",
      "outputs": [
        {
          "internalType": "uint8",
          "name": "",
          "type": "uint8"
        }
      ],
      "stateMutability": "view",
      "type": "function"
    },
    {
      "inputs": [],
      "name": "name",
      "outputs": [
        {
          "internalType": "string",
          "name": "",
          "type": "string"
        }
      ],
      "stateMutability": "view",
      "type": "function"
    },
    {
      "inputs": [],
      "name": "owner",
      "outputs": [
        {
          "internalType": "address payable",
          "name": "",
          "type": "address"
        }
      ],
      "stateMutability": "view",
      "type": "function"
    },
    {
      "inputs": [],
      "name": "symbol",
      "outputs": [
        {
          "internalType": "string",
          "name": "",
          "type": "string"
        }
      ],
      "stateMutability": "view",
      "type": "function"
    },
    {
      "inputs": [],
      "name": "totalSupply_",
      "outputs": [
        {
          "internalType": "uint256",
          "name": "",
          "type": "uint256"
        }
      ],
      "stateMutability": "view",
      "type": "function"
    },
    {
      "inputs": [
        {
          "internalType": "address",
          "name": "investor",
          "type": "address"
        }
      ],
      "name": "dividendsOwing",
      "outputs": [
        {
          "internalType": "uint256",
          "name": "",
          "type": "uint256"
        }
      ],
      "stateMutability": "nonpayable",
      "type": "function"
    },
    {
      "inputs": [
        {
          "internalType": "uint256",
          "name": "amount",
          "type": "uint256"
        }
      ],
      "name": "disburse",
      "outputs": [],
      "stateMutability": "nonpayable",
      "type": "function"
    },
    {
      "inputs": [
        {
          "internalType": "address",
          "name": "_to",
          "type": "address"
        },
        {
          "internalType": "uint256",
          "name": "_value",
          "type": "uint256"
        }
      ],
      "name": "transfer",
      "outputs": [
        {
          "internalType": "bool",
          "name": "",
          "type": "bool"
        }
      ],
      "stateMutability": "nonpayable",
      "type": "function"
    },
    {
      "inputs": [
        {
          "internalType": "address",
          "name": "_from",
          "type": "address"
        },
        {
          "internalType": "address",
          "name": "_to",
          "type": "address"
        },
        {
          "internalType": "uint256",
          "name": "_value",
          "type": "uint256"
        }
      ],
      "name": "transferFrom",
      "outputs": [
        {
          "internalType": "bool",
          "name": "",
          "type": "bool"
        }
      ],
      "stateMutability": "nonpayable",
      "type": "function"
    },
    {
      "inputs": [
        {
          "internalType": "address",
          "name": "_spender",
          "type": "address"
        },
        {
          "internalType": "uint256",
          "name": "_value",
          "type": "uint256"
        }
      ],
      "name": "approve",
      "outputs": [
        {
          "internalType": "bool",
          "name": "",
          "type": "bool"
        }
      ],
      "stateMutability": "nonpayable",
      "type": "function"
    },
    {
      "inputs": [
        {
          "internalType": "address",
          "name": "_owner",
          "type": "address"
        },
        {
          "internalType": "address",
          "name": "_spender",
          "type": "address"
        }
      ],
      "name": "allowance",
      "outputs": [
        {
          "internalType": "uint256",
          "name": "",
          "type": "uint256"
        }
      ],
      "stateMutability": "view",
      "type": "function"
    },
    {
      "inputs": [
        {
          "internalType": "uint256",
          "name": "amount",
          "type": "uint256"
        }
      ],
      "name": "withdraw",
      "outputs": [],
      "stateMutability": "nonpayable",
      "type": "function"
    }
  ],
  "bytecode": "0x60806040526040518060400160405280600e81526020017f4f5452435061727479546f6b656e000000000000000000000000000000000000815250600090805190602001906200005192919062000223565b506040518060400160405280600681526020017f4f54524350540000000000000000000000000000000000000000000000000000815250600190805190602001906200009f92919062000223565b506005600260006101000a81548160ff021916908360ff160217905550743a28cbdab6d9e8dbab48773c6619ad86000000000060035560006004556000600555633b9aca0060065573751a2016d88040b43dc623e662ff2b7693d9a35a600760006101000a81548173ffffffffffffffffffffffffffffffffffffffff021916908373ffffffffffffffffffffffffffffffffffffffff1602179055503480156200014957600080fd5b50600354600860003373ffffffffffffffffffffffffffffffffffffffff1673ffffffffffffffffffffffffffffffffffffffff16815260200190815260200160002060000181905550600760009054906101000a900473ffffffffffffffffffffffffffffffffffffffff1673ffffffffffffffffffffffffffffffffffffffff16600073ffffffffffffffffffffffffffffffffffffffff167fddf252ad1be2c89b69c2b068fc378daa952ba7f163c4a11628f55a4df523b3ef6003546040518082815260200191505060405180910390a3620002c9565b828054600181600116156101000203166002900490600052602060002090601f016020900481019282601f106200026657805160ff191683800117855562000297565b8280016001018555821562000297579182015b828111156200029657825182559160200191906001019062000279565b5b509050620002a69190620002aa565b5090565b5b80821115620002c5576000816000905550600101620002ab565b5090565b61188480620002d96000396000f3fe608060405234801561001057600080fd5b50600436106100cf5760003560e01c806370a082311161008c57806395d89b411161006657806395d89b4114610397578063a9059cbb1461041a578063bd77ac2c1461047e578063dd62ed3e146104ac576100cf565b806370a08231146102ac5780638391e45c1461030b5780638da5cb5b14610363576100cf565b806306fdde03146100d4578063095ea7b31461015757806323b872dd146101bb5780632e1a7d4d1461023f578063313ce5671461026d578063324536eb1461028e575b600080fd5b6100dc610524565b6040518080602001828103825283818151815260200191508051906020019080838360005b8381101561011c578082015181840152602081019050610101565b50505050905090810190601f1680156101495780820380516001836020036101000a031916815260200191505b509250505060405180910390f35b6101a36004803603604081101561016d57600080fd5b81019080803573ffffffffffffffffffffffffffffffffffffffff169060200190929190803590602001909291905050506105c2565b60405180821515815260200191505060405180910390f35b610227600480360360608110156101d157600080fd5b81019080803573ffffffffffffffffffffffffffffffffffffffff169060200190929190803573ffffffffffffffffffffffffffffffffffffffff169060200190929190803590602001909291905050506106b7565b60405180821515815260200191505060405180910390f35b61026b6004803603602081101561025557600080fd5b8101908080359060200190929190505050610ba6565b005b610275610c8b565b604051808260ff16815260200191505060405180910390f35b610296610c9e565b6040518082815260200191505060405180910390f35b6102ee600480360360208110156102c257600080fd5b81019080803573ffffffffffffffffffffffffffffffffffffffff169060200190929190505050610ca4565b604051808381526020018281526020019250505060405180910390f35b61034d6004803603602081101561032157600080fd5b81019080803573ffffffffffffffffffffffffffffffffffffffff169060200190929190505050610cc8565b6040518082815260200191505060405180910390f35b61036b610eaf565b604051808273ffffffffffffffffffffffffffffffffffffffff16815260200191505060405180910390f35b61039f610ed5565b6040518080602001828103825283818151815260200191508051906020019080838360005b838110156103df5780820151818401526020810190506103c4565b50505050905090810190601f16801561040c5780820380516001836020036101000a031916815260200191505b509250505060405180910390f35b6104666004803603604081101561043057600080fd5b81019080803573ffffffffffffffffffffffffffffffffffffffff16906020019092919080359060200190929190505050610f73565b60405180821515815260200191505060405180910390f35b6104aa6004803603602081101561049457600080fd5b81019080803590602001909291905050506113ff565b005b61050e600480360360408110156104c257600080fd5b81019080803573ffffffffffffffffffffffffffffffffffffffff169060200190929190803573ffffffffffffffffffffffffffffffffffffffff16906020019092919050505061147b565b6040518082815260200191505060405180910390f35b60008054600181600116156101000203166002900480601f0160208091040260200160405190810160405280929190818152602001828054600181600116156101000203166002900480156105ba5780601f1061058f576101008083540402835291602001916105ba565b820191906000526020600020905b81548152906001019060200180831161059d57829003601f168201915b505050505081565b600081600960003373ffffffffffffffffffffffffffffffffffffffff1673ffffffffffffffffffffffffffffffffffffffff16815260200190815260200160002060008573ffffffffffffffffffffffffffffffffffffffff1673ffffffffffffffffffffffffffffffffffffffff168152602001908152602001600020600001819055508273ffffffffffffffffffffffffffffffffffffffff163373ffffffffffffffffffffffffffffffffffffffff167f8c5be1e5ebec7d5bd14f71427d1e84f3dd0314c0f7b2291e5b200ac8c7c3b925846040518082815260200191505060405180910390a36001905092915050565b60008360006106c582610cc8565b905060008111156107d0576106e58160055461150590919063ffffffff16565b60058190555061074081600860008573ffffffffffffffffffffffffffffffffffffffff1673ffffffffffffffffffffffffffffffffffffffff1681526020019081526020016000206000015461154f90919063ffffffff16565b600860008473ffffffffffffffffffffffffffffffffffffffff1673ffffffffffffffffffffffffffffffffffffffff16815260200190815260200160002060000181905550600454600860008473ffffffffffffffffffffffffffffffffffffffff1673ffffffffffffffffffffffffffffffffffffffff168152602001908152602001600020600101819055505b8460006107dc82610cc8565b905060008111156108e7576107fc8160055461150590919063ffffffff16565b60058190555061085781600860008573ffffffffffffffffffffffffffffffffffffffff1673ffffffffffffffffffffffffffffffffffffffff1681526020019081526020016000206000015461154f90919063ffffffff16565b600860008473ffffffffffffffffffffffffffffffffffffffff1673ffffffffffffffffffffffffffffffffffffffff16815260200190815260200160002060000181905550600454600860008473ffffffffffffffffffffffffffffffffffffffff1673ffffffffffffffffffffffffffffffffffffffff168152602001908152602001600020600101819055505b61093c86600860008b73ffffffffffffffffffffffffffffffffffffffff1673ffffffffffffffffffffffffffffffffffffffff1681526020019081526020016000206000015461150590919063ffffffff16565b600860008a73ffffffffffffffffffffffffffffffffffffffff1673ffffffffffffffffffffffffffffffffffffffff168152602001908152602001600020600001819055506109d786600860008a73ffffffffffffffffffffffffffffffffffffffff1673ffffffffffffffffffffffffffffffffffffffff1681526020019081526020016000206000015461154f90919063ffffffff16565b600860008973ffffffffffffffffffffffffffffffffffffffff1673ffffffffffffffffffffffffffffffffffffffff16815260200190815260200160002060000181905550610aaf86600960008b73ffffffffffffffffffffffffffffffffffffffff1673ffffffffffffffffffffffffffffffffffffffff16815260200190815260200160002060003373ffffffffffffffffffffffffffffffffffffffff1673ffffffffffffffffffffffffffffffffffffffff1681526020019081526020016000206000015461150590919063ffffffff16565b600960008a73ffffffffffffffffffffffffffffffffffffffff1673ffffffffffffffffffffffffffffffffffffffff16815260200190815260200160002060003373ffffffffffffffffffffffffffffffffffffffff1673ffffffffffffffffffffffffffffffffffffffff168152602001908152602001600020600001819055508673ffffffffffffffffffffffffffffffffffffffff168873ffffffffffffffffffffffffffffffffffffffff167fddf252ad1be2c89b69c2b068fc378daa952ba7f163c4a11628f55a4df523b3ef886040518082815260200191505060405180910390a360019450505050509392505050565b600760009054906101000a900473ffffffffffffffffffffffffffffffffffffffff1673ffffffffffffffffffffffffffffffffffffffff163373ffffffffffffffffffffffffffffffffffffffff1614610c0057600080fd5b600760009054906101000a900473ffffffffffffffffffffffffffffffffffffffff1673ffffffffffffffffffffffffffffffffffffffff168160405180600001905060006040518083038185875af1925050503d8060008114610c80576040519150601f19603f3d011682016040523d82523d6000602084013e610c85565b606091505b50505050565b600260009054906101000a900460ff1681565b60035481565b60086020528060005260406000206000915090508060000154908060010154905082565b6000336000610cd682610cc8565b90506000811115610de157610cf68160055461150590919063ffffffff16565b600581905550610d5181600860008573ffffffffffffffffffffffffffffffffffffffff1673ffffffffffffffffffffffffffffffffffffffff1681526020019081526020016000206000015461154f90919063ffffffff16565b600860008473ffffffffffffffffffffffffffffffffffffffff1673ffffffffffffffffffffffffffffffffffffffff16815260200190815260200160002060000181905550600454600860008473ffffffffffffffffffffffffffffffffffffffff1673ffffffffffffffffffffffffffffffffffffffff168152602001908152602001600020600101819055505b6000610e3a600860008773ffffffffffffffffffffffffffffffffffffffff1673ffffffffffffffffffffffffffffffffffffffff1681526020019081526020016000206001015460045461150590919063ffffffff16565b9050610ea5600654610e9783600860008a73ffffffffffffffffffffffffffffffffffffffff1673ffffffffffffffffffffffffffffffffffffffff168152602001908152602001600020600001546115d790919063ffffffff16565b61165d90919063ffffffff16565b9350505050919050565b600760009054906101000a900473ffffffffffffffffffffffffffffffffffffffff1681565b60018054600181600116156101000203166002900480601f016020809104026020016040519081016040528092919081815260200182805460018160011615610100020316600290048015610f6b5780601f10610f4057610100808354040283529160200191610f6b565b820191906000526020600020905b815481529060010190602001808311610f4e57829003601f168201915b505050505081565b6000336000610f8182610cc8565b9050600081111561108c57610fa18160055461150590919063ffffffff16565b600581905550610ffc81600860008573ffffffffffffffffffffffffffffffffffffffff1673ffffffffffffffffffffffffffffffffffffffff1681526020019081526020016000206000015461154f90919063ffffffff16565b600860008473ffffffffffffffffffffffffffffffffffffffff1673ffffffffffffffffffffffffffffffffffffffff16815260200190815260200160002060000181905550600454600860008473ffffffffffffffffffffffffffffffffffffffff1673ffffffffffffffffffffffffffffffffffffffff168152602001908152602001600020600101819055505b84600061109882610cc8565b905060008111156111a3576110b88160055461150590919063ffffffff16565b60058190555061111381600860008573ffffffffffffffffffffffffffffffffffffffff1673ffffffffffffffffffffffffffffffffffffffff1681526020019081526020016000206000015461154f90919063ffffffff16565b600860008473ffffffffffffffffffffffffffffffffffffffff1673ffffffffffffffffffffffffffffffffffffffff16815260200190815260200160002060000181905550600454600860008473ffffffffffffffffffffffffffffffffffffffff1673ffffffffffffffffffffffffffffffffffffffff168152602001908152602001600020600101819055505b8673ffffffffffffffffffffffffffffffffffffffff163373ffffffffffffffffffffffffffffffffffffffff16146112f157600073ffffffffffffffffffffffffffffffffffffffff168773ffffffffffffffffffffffffffffffffffffffff16146112f057600860003373ffffffffffffffffffffffffffffffffffffffff1673ffffffffffffffffffffffffffffffffffffffff1681526020019081526020016000206000015486116112ef576112a886600860003373ffffffffffffffffffffffffffffffffffffffff1673ffffffffffffffffffffffffffffffffffffffff1681526020019081526020016000206000015461150590919063ffffffff16565b600860003373ffffffffffffffffffffffffffffffffffffffff1673ffffffffffffffffffffffffffffffffffffffff168152602001908152602001600020600001819055505b5b5b61134686600860008a73ffffffffffffffffffffffffffffffffffffffff1673ffffffffffffffffffffffffffffffffffffffff1681526020019081526020016000206000015461154f90919063ffffffff16565b600860008973ffffffffffffffffffffffffffffffffffffffff1673ffffffffffffffffffffffffffffffffffffffff168152602001908152602001600020600001819055508673ffffffffffffffffffffffffffffffffffffffff163373ffffffffffffffffffffffffffffffffffffffff167fddf252ad1be2c89b69c2b068fc378daa952ba7f163c4a11628f55a4df523b3ef886040518082815260200191505060405180910390a3600194505050505092915050565b61143c61142b60035461141d600654856115d790919063ffffffff16565b61165d90919063ffffffff16565b60045461154f90919063ffffffff16565b6004819055506114578160035461154f90919063ffffffff16565b6003819055506114728160055461154f90919063ffffffff16565b60058190555050565b6000600960008473ffffffffffffffffffffffffffffffffffffffff1673ffffffffffffffffffffffffffffffffffffffff16815260200190815260200160002060008373ffffffffffffffffffffffffffffffffffffffff1673ffffffffffffffffffffffffffffffffffffffff16815260200190815260200160002060000154905092915050565b600061154783836040518060400160405280601e81526020017f536166654d6174683a207375627472616374696f6e206f766572666c6f7700008152506116a7565b905092915050565b6000808284019050838110156115cd576040517f08c379a000000000000000000000000000000000000000000000000000000000815260040180806020018281038252601b8152602001807f536166654d6174683a206164646974696f6e206f766572666c6f77000000000081525060200191505060405180910390fd5b8091505092915050565b6000808314156115ea5760009050611657565b60008284029050828482816115fb57fe5b0414611652576040517f08c379a000000000000000000000000000000000000000000000000000000000815260040180806020018281038252602181526020018061182e6021913960400191505060405180910390fd5b809150505b92915050565b600061169f83836040518060400160405280601a81526020017f536166654d6174683a206469766973696f6e206279207a65726f000000000000815250611767565b905092915050565b6000838311158290611754576040517f08c379a00000000000000000000000000000000000000000000000000000000081526004018080602001828103825283818151815260200191508051906020019080838360005b838110156117195780820151818401526020810190506116fe565b50505050905090810190601f1680156117465780820380516001836020036101000a031916815260200191505b509250505060405180910390fd5b5060008385039050809150509392505050565b60008083118290611813576040517f08c379a00000000000000000000000000000000000000000000000000000000081526004018080602001828103825283818151815260200191508051906020019080838360005b838110156117d85780820151818401526020810190506117bd565b50505050905090810190601f1680156118055780820380516001836020036101000a031916815260200191505b509250505060405180910390fd5b50600083858161181f57fe5b04905080915050939250505056fe536166654d6174683a206d756c7469706c69636174696f6e206f766572666c6f77a2646970667358221220e9278916141e772b52183ece0b76e2ee42939a829b03ce4e36a5899e5853185e64736f6c634300060c0033",
  "immutableReferences": {},
  "source": "// SPDX-License-Identifier: GNU GPL v.3\n\npragma solidity ^0.6.2;\n\nimport \"../../node_modules/@openzeppelin/contracts/math/SafeMath.sol\";\n\ncontract OTRCPartyToken {\n    using SafeMath for uint256;\n\n    string public name = \"OTRCPartyToken\";\n    string public symbol = \"OTRCPT\";\n    uint8 public decimals = 5;\n    uint256\n        public totalSupply_ = 85000000700000000000000000000000000000000000000000;\n    uint256 totalDividendPoints = 0;\n    uint256 unclaimedDividends = 0;\n    uint256 pointMultiplier = 1000000000;\n    address payable public owner = 0x751a2016D88040b43Dc623e662FF2b7693d9a35a ;\n\n    struct account {\n        uint256 balance;\n        uint256 lastDividendPoints;\n    }\n\n    mapping(address => account) public balanceOf;\n\n    event Transfer(address indexed from, address indexed to, uint256 value);\n\n    event Approval(\n        address indexed owner,\n        address indexed spender,\n        uint256 value\n    );\n\n    modifier onlyOwner() {\n        _;\n    }\n    modifier updateDividend(address investor) {\n        uint256 owing = dividendsOwing(investor);\n        if (owing > 0) {\n            unclaimedDividends = unclaimedDividends.sub(owing);\n            balanceOf[investor].balance = balanceOf[investor].balance.add(\n                owing\n            );\n            balanceOf[investor].lastDividendPoints = totalDividendPoints;\n        }\n        _;\n    }\n\n    constructor() public {\n        // Initially assign all tokens to the contract's creator.\n        balanceOf[msg.sender].balance = totalSupply_;\n        emit Transfer(address(0), owner, totalSupply_);\n    }\n\n    /**\n     new dividend = totalDividendPoints - investor's lastDividnedPoint\n     ( balance * new dividend ) / points multiplier\n\n    **/\n    function dividendsOwing(address investor)\n        public\n        updateDividend(msg.sender)\n        returns (uint256)\n    {\n        uint256 newDividendPoints = totalDividendPoints.sub(\n            balanceOf[investor].lastDividendPoints\n        );\n        return\n            (balanceOf[investor].balance.mul(newDividendPoints)).div(\n                pointMultiplier\n            );\n    }\n\n    /**\n\n    **/\n    function disburse(uint256 amount) public onlyOwner {\n        totalDividendPoints = totalDividendPoints.add(\n            (amount.mul(pointMultiplier)).div(totalSupply_)\n        );\n        totalSupply_ = totalSupply_.add(amount);\n        unclaimedDividends = unclaimedDividends.add(amount);\n    }\n\n    function transfer(address _to, uint256 _value)\n        public\n        updateDividend(msg.sender)\n        updateDividend(_to)\n        returns (bool)\n    {\n        if (msg.sender != _to)\n            if (_to != address(0))\n                if (_value <= balanceOf[msg.sender].balance)\n                    balanceOf[msg.sender].balance = (\n                        balanceOf[msg.sender].balance\n                    )\n                        .sub(_value);\n        balanceOf[_to].balance = (balanceOf[_to].balance).add(_value);\n        emit Transfer(msg.sender, _to, _value);\n        return true;\n    }\n\n    mapping(address => mapping(address => account)) internal allowed;\n\n    function transferFrom(\n        address _from,\n        address _to,\n        uint256 _value\n    ) public updateDividend(_from) updateDividend(_to) returns (bool) {\n        balanceOf[_from].balance = (balanceOf[_from].balance).sub(_value);\n        balanceOf[_to].balance = (balanceOf[_to].balance).add(_value);\n        (allowed[_from][msg.sender]).balance = (allowed[_from][msg.sender])\n            .balance\n            .sub(_value);\n        emit Transfer(_from, _to, _value);\n        return true;\n    }\n\n    function approve(address _spender, uint256 _value) public returns (bool) {\n        (allowed[msg.sender][_spender]).balance = _value;\n        emit Approval(msg.sender, _spender, _value);\n        return true;\n    }\n\n    function allowance(address _owner, address _spender)\n        public\n        view\n        returns (uint256)\n    {\n        return (allowed[_owner][_spender]).balance;\n    }\n   function withdraw(uint256 amount) public {\n    require(msg.sender == owner);\n        owner.call{value: amount}('');\n    }\n\n   \n\n}\n",
  "sourcePath": "C:/Users/daote/OneDrive/Desktop/Dapp Projects/crypto-pizza-master/CryptoPizza/contracts/OTRCPartyToken.sol",
  "compiler": {
    "name": "solc",
    "version": "0.6.12+commit.27d51765.Emscripten.clang"
  },
  "schemaVersion": "3.3.2",
  "updatedAt": "2021-01-02T11:58:37.628Z",
  "devdoc": {
    "kind": "dev",
    "methods": {},
    "version": 1
  },
  "userdoc": {
    "kind": "user",
    "methods": {
      "disburse(uint256)": {
        "notice": "*"
      },
      "dividendsOwing(address)": {
        "notice": "new dividend = totalDividendPoints - investor's lastDividnedPoint ( balance * new dividend ) / points multiplier*"
      }
    },
    "version": 1
  }
}